{
  "contractName": "DocumentRegistry",
  "abi": [
    {
      "constant": false,
      "inputs": [
        {
          "name": "hash",
          "type": "string"
        }
      ],
      "name": "add",
      "outputs": [
        {
          "name": "dateAdded",
          "type": "uint256"
        }
      ],
      "payable": false,
      "stateMutability": "nonpayable",
      "type": "function"
    },
    {
      "constant": true,
      "inputs": [
        {
          "name": "hash",
          "type": "string"
        }
      ],
      "name": "verify",
      "outputs": [
        {
          "name": "dateAdded",
          "type": "uint256"
        }
      ],
      "payable": false,
      "stateMutability": "view",
      "type": "function"
    }
  ],
  "bytecode": "0x608060405233600160006101000a81548173ffffffffffffffffffffffffffffffffffffffff021916908373ffffffffffffffffffffffffffffffffffffffff16021790555034801561005157600080fd5b50610372806100616000396000f3fe608060405234801561001057600080fd5b5060043610610053576000357c010000000000000000000000000000000000000000000000000000000090048063b0c8f9dc14610058578063bb9c6c3e14610127575b600080fd5b6101116004803603602081101561006e57600080fd5b810190808035906020019064010000000081111561008b57600080fd5b82018360208201111561009d57600080fd5b803590602001918460018302840111640100000000831117156100bf57600080fd5b91908080601f016020809104026020016040519081016040528093929190818152602001838380828437600081840152601f19601f8201169050808301925050505050505091929192905050506101f6565b6040518082815260200191505060405180910390f35b6101e06004803603602081101561013d57600080fd5b810190808035906020019064010000000081111561015a57600080fd5b82018360208201111561016c57600080fd5b8035906020019184600183028401116401000000008311171561018e57600080fd5b91908080601f016020809104026020016040519081016040528093929190818152602001838380828437600081840152601f19601f8201169050808301925050505050505091929192905050506102d2565b6040518082815260200191505060405180910390f35b6000600160009054906101000a900473ffffffffffffffffffffffffffffffffffffffff1673ffffffffffffffffffffffffffffffffffffffff163373ffffffffffffffffffffffffffffffffffffffff1614151561025457600080fd5b6000429050806000846040518082805190602001908083835b602083101515610292578051825260208201915060208101905060208303925061026d565b6001836020036101000a03801982511681845116808217855250505050505090500191505090815260200160405180910390208190555080915050919050565b600080826040518082805190602001908083835b60208310151561030b57805182526020820191506020810190506020830392506102e6565b6001836020036101000a038019825116818451168082178552505050505050905001915050908152602001604051809103902054905091905056fea165627a7a72305820d409f0aeb989ea9a10de1da2ea0236a5cb79690b553d89bc799c31bd8c815f120029",
  "source": "pragma solidity 0.5.3;\ncontract DocumentRegistry {\n  mapping (string => uint256) documents;\n  address contractOwner = msg.sender;\n  function add(string memory hash) public returns (uint256 dateAdded) {\n    require (msg.sender == contractOwner);\n    uint256 timeAdded = block.timestamp;\n    documents[hash] = timeAdded;\n    return timeAdded;\n  }\n  function verify( string memory hash) public view returns (uint256 dateAdded) {\n    return documents[hash];\n  }\n}",
  "sourcePath": "/Users/macbook/Projects/ldt-truffle/contracts/DocumentRegistry.sol",
  "compiler": {
    "name": "solc",
    "version": "0.5.3+commit.10d17f24.Emscripten.clang"
  },
  "schemaVersion": "3.4.1",
  "updatedAt": "2021-07-04T17:53:18.200Z",
  "networkType": "ethereum",
  "devdoc": {
    "methods": {}
  },
  "userdoc": {
    "methods": {}
  }
}